S011000031305F54696D6572332E737265631F
S11300007024002005030000010300000103000028
S113001000000000000000000000000000000000DC
S113002000000000000000000000000001030000C8
S113003000000000000000000103000001030000B4
S1130040010300000103000001030000010300009C
S1130050010300000103000001030000010300008C
S1130060010300000103000001030000010300007C
S1130070010300000103000001030000010300006C
S11300800103000001030000CD0100000103000092
S11300900103000000000000000000000103000054
S11300A0010300000103000001030000010300003C
S11300B00000000010B5064C2378002B07D1054B37
S11300C0002B02D0044800E000BF0123237010BDC0
S11300D02C04002000000000C4050000084B10B5EB
S11300E0002B03D00749084800E000BF0748036815
S11300F0002B00D110BD064B002BFBD09847F9E72D
S11301000000000030040020C4050000C405000005
S11301100000000010B5044B984780239B02034A5B
S11301201360034A136010BDF50100000044004150
S1130130144400411E4951228B5C402003438B54DC
S11301401C4A116880231B010B4313601A4A1B4B82
S11301505A801B4B1A8802218A431A801A880A3152
S11301608A431A801A8892B21A801A88A021C90078
S11301700A431A8000225A735A7B10210A435A7385
S11301801A8802210A431A801A00D37BDB09012B47
S1130190FBD00C4BC42080001A580B491140C022DC
S11301A012040A431A508022D2021A60FEE7C046A3
S11301B000440041200400401B400000000C0040AB
S11301C0002C004200E100E0FFFF00FF064B9B7B98
S11301D0DB0700D4704780229202044B1A6001228C
S11301E0034B1A70F6E7C046002C00421C44004141
S11301F00E2C0042344A53681E218B431C390B4396
S11302005360324B832292009A829A8A0A439A82DA
S11302101A00D3689B07FCD52D4B0222FF329A604B
S11302202C4A5A601A005378DB09FCD1284B8222ED
S1130230D2015A80254AD368DB06FCD50222234B1F
S11302409A841A00D368DB06FCD5204B224ADA6272
S11302501A00D368DB06FCD5204B1A681B498B6A4D
S1130260920E92021E48034013438B620A00D36825
S1130270DB06FCD5154A938C1A490B439384144B23
S1130280194A5A601A005378DB09FCD1174B184AF3
S11302909A620E4B1A6A17490A401A621A6A802136
S11302A08A431A620A4B0422FF329A60124A5A6045
S11302B01A005378DB09FCD1104B00221A725A72CF
S11302C09A72DA727047C04600400041000800404C
S11302D0000C004001050300B905FF7D2460800087
S11302E0FF03FFFF0408000000070B000044004167
S11302F0001001D7FFFCFFFF0306030000040040C9
S1130300FEE70000F8B52A4A2A4B9A4211D01A0097
S1130310294B9A420DD2294A03339B1A9B08013375
S11303209B000022234822498C58845004329A426C
S1130330FAD1234A234B9A420AD2D34321495B1868
S113034003218B4304339B18002102C29342FCD146
S11303501D4AFF211D4B8B439360FD3990235B00A5
S11303601B4AD1501B4AD3780325AB4302242343B1
S1130370D370D3780C27BB4308263343D370164B72
S1130380987B30229043202210439873997BB94381
S1130390314399739A7BAA4322439A730F4A536851
S11303A080210B4353600E4B98470E4B9847FEE752
S11303B0C4050000000000202C04002004000020DC
S11303C02C0400206C04002000ED00E0000000007C
S11303D000700041005000410048004100400041CD
S11303E0FD030000E903000010B5024B9847024CDE
S11303F0A047FDE7150100003501000070B50D4E62
S11304000D4D0024AD1BAD1005D0A300F3580134ED
S11304109847A542F9D100F0C3F8084E084D0024CE
S1130420AD1BAD1005D0A300F35801349847A54285
S1130430F9D170BDAC050000AC050000AC050000AE
S1130440B4050000034B10B5002B02D0024800F0A5
S113045005F810BD000000006D04000010B5010097
S113046000230022002000F01FF810BD70B5094BD6
S1130470094CE41AA41009D0084AA518AD00ED18D7
S11304802B68013C9847043D002CF9D100F092F808
S113049070BDC046C0050000C4050000FFFFFF3F5B
S11304A07047C0467047C046F0B54E464546DE46E6
S11304B05746E0B5364D83B00600286898460F00CD
S11304C09146FFF7EDFF334B1C68A4235B00E05813
S11304D0002852D043681F2B13DC5A1C0192002EB3
S11304E028D1019A02339B0042601F502868FFF70D
S11304F0D9FF002003B03CBC90469946A246AB46C7
S1130500F0BD254B002B3DD0C820400000E000BFCB
S1130510002837D0A42200235200A1584360016070
S1130520A05040328350043283500133019300239E
S1130530002ED6D09A00924682444A4688215446D8
S11305406250C4225200914681444A4687399940F8
S113055012688B460A4394464A46614611608422D7
S113056041465200A150022EBBD102005C468D329E
S1130570FF3211680C431460B3E720004D30FF30A4
S1130580E050A7E72868FFF78DFF01204042B1E75C
S1130590280400209C05000000000000000000204A
S11305A0F8B5C046F8BC08BC9E4670474504000038
S11305B0DD000000F8B5C046F8BC08BC9E46704794
S10705C0B50000007E
S11305C400000000EC02002054030020BC030020BF
S11305D40000000000000000000000000000000013
S11305E40000000000000000000000000000000003
S11305F400000000000000000000000000000000F3
S113060400000000000000000000000000000000E2
S113061400000000000000000000000000000000D2
S113062400000000000000000000000000000000C2
S113063400000000000000000000000000000000B2
S113064400000000000000000000000000000000A2
S11306540000000000000000000000000000000092
S11306640000000000000000010000000000000081
S11306740E33CDAB34126DE6ECDE05000B00000046
S11306840000000000000000000000000000000062
S11306940000000000000000000000000000000052
S11306A40000000000000000000000000000000042
S11306B40000000000000000000000000000000032
S10F09E400000000000000004804002097
S9030000FC
