:10000000702400206D0300006903000069030000F4
:1000100000000000000000000000000000000000E0
:100020000000000000000000000000006903000064
:1000300000000000000000006903000069030000E8
:100040006903000069030000690300006903000000
:1000500069030000690300006903000069030000F0
:1000600069030000690300006903000069030000E0
:1000700069030000690300006903000069030000D0
:1000800069030000690300006903000069030000C0
:100090006903000000000000000000006903000088
:1000A00069030000690300006903000069030000A0
:1000B0000000000010B5064C2378002B07D1054B3B
:1000C000002B02D0044800E000BF0123237010BDC4
:1000D0002C0400200000000040090000084B10B56F
:1000E000002B03D00749084800E000BF0748036819
:1000F000002B00D110BD064B002BFBD09847F9E731
:100100000000000030040020400900004009000009
:100110000000000010B5044B984780231B02034ADF
:100120001360034A136010BD5102000000440041F7
:1001300014440041064A137EDB07FCD5044B986249
:100140001A00137E5B07FCD5014B986AC0B270475A
:10015000000C0042F8B52B4A136A08210B431362C6
:10016000294A2A4B5A802A4B2A4A9A622A4A9A6278
:100170004B315A5C402002435A54284A1368513983
:100180008B4313601300DA69D207FCD4234A136847
:1001900001210B43136013001A68D207FCD4204BD3
:1001A000204A1A6017221A73802292025A601A6833
:1001B00002210A431A60DA699207FCD49620800172
:1001C000194B984719481A4B98471A4E1A4F302422
:1001D0001A48B0472000B8471948B0472000194BCB
:1001E000984705001848B0470135E8B2B8471448A9
:1001F000B04716480E4B98470134E4B2392CE7D18A
:10020000E5E7C0460004004015400000000C004037
:1002100000440041040003D2090001D2001C004246
:10022000000C00420C00230065040000DC50340088
:100230005D030000250500000D050000FC0800001E
:10024000040900003501000008090000B7A168009A
:10025000344A53681E218B431C390B435360324B85
:10026000832292009A829A8A0A439A821A00D36859
:100270009B07FCD52D4B0222FF329A602C4A5A6014
:100280001A005378DB09FCD1284B8222D2015A8014
:10029000254AD368DB06FCD50222234B9A841A0038
:1002A000D368DB06FCD5204B224ADA621A00D368F9
:1002B000DB06FCD5204B1A681B498B6A920E920212
:1002C0001E48034013438B620A00D368DB06FCD54B
:1002D000154A938C1A490B439384144B194A5A605C
:1002E0001A005378DB09FCD1174B184A9A620E4B5F
:1002F0001A6A17490A401A621A6A80218A431A62E6
:100300000A4B0422FF329A60124A5A601A0053784C
:10031000DB09FCD1104B00221A725A729A72DA72FF
:100320007047C0460040004100080040000C0040FB
:1003300001050300B905FF7D24608000FF03FFFF76
:100340000408000000070B0000440041001001D722
:10035000FFFCFFFF0306030000040040BFF35F8FB4
:1003600001380028FAD17047FEE70000F8B52A4AA4
:100370002A4B9A4211D01A00294B9A420DD2294A8F
:1003800003339B1A9B0801339B0000222348224918
:100390008C58845004329A42FAD1234A234B9A4211
:1003A0000AD2D34321495B1803218B4304339B18A2
:1003B000002102C29342FCD11D4AFF211D4B8B43F9
:1003C0009360FD3990235B001B4AD1501B4AD378C0
:1003D0000325AB4302242343D370D3780C27BB43BC
:1003E00008263343D370164B987B3022904320224B
:1003F00010439873997BB943314399739A7BAA430D
:1004000022439A730F4A536880210B4353600E4B6B
:1004100098470E4B9847FEE7400900000000002077
:100420002C040020040000202C0400206C04002078
:1004300000ED00E0000000000070004100500041AD
:1004400000480041004000415D07000051040000E9
:1004500010B5024B9847024CA047FDE7150100007C
:100460005501000070B5214A136820210B43136029
:100470001F4A204B5A80204B8022D2039A6056227A
:10048000995C01263143C9B299543B24195D473A1E
:100490009143022211431955802212045A605721B8
:1004A0005D5C042295435D545A5C3243D2B25A5487
:1004B000195D0F220A4020210A431A550F4C104B98
:1004C0002360C0239B026360000140420D4B9C46A9
:1004D0006044010C00040B4A00230B4DA84780B276
:1004E000A081236802221343236070BD20040040D2
:1004F00017400000000C004000440041001400427E
:1005000004001040006CDC0245050000034A13782B
:10051000002BFCD080B2024B1880704718140042A8
:100520002814004270B504000078002807D0013478
:10053000034DA8470134631E18780028F9D170BD17
:100540000D050000002B11D1002A0FD1002900D188
:10055000002802D00021C943081C07B4024802A1A8
:100560004018029003BDC0469D01000003B46846D8
:1005700001B5029800F006F8019B9E4602B00CBC43
:100580007047C046F0B557464E464546DE46E0B594
:10059000040083B00D00924699468B422FD82CD090
:1005A0004946504600F0B0F829000600200000F04F
:1005B000ABF8331A9846203B9B4600D574E053466F
:1005C0005A4693401F005346424693401E00AF4296
:1005D00029D826D05B46A41BBD41002B00DA79E068
:1005E000002200230092019301235A469340019375
:1005F000012342469340009319E08242D0D9002261
:100600000023009201930C9B002B01D01C605D60C5
:100610000098019903B03CBC90469946A246AB466F
:10062000F0BDA342D6D90022002300920193434695
:10063000002BE8D0FB0772081A4346467B080EE001
:10064000AB4201D1A2420CD8A41A9D410120241929
:100650006D410021013E24184D41002E06D0AB42D1
:10066000EED9013E24196D41002EF8D15B46009869
:10067000019900196941002B22DB2B005A46D34017
:100680002A004446E2401C005B461500002B2CDB90
:1006900026009E40330026004746BE403200801AA6
:1006A000994100900191AEE7424620239B1A5246A1
:1006B000DA40414613004A468A4017001F4382E74A
:1006C000424620239B1A2A0046469A402300F340C4
:1006D0001343D5E74246202300219B1A00220091B4
:1006E00001920122DA40019282E74246202326004D
:1006F0009B1ADE402F00B446974066463B003343CA
:10070000C9E7C0467047C04610B5002903D100F0C4
:1007100007F8203002E0081C00F002F810BDC046C7
:100720001C2101231B04984201D3000C10391B0A21
:10073000984201D3000A08391B09984201D30009E5
:10074000043902A2105C40187047C046040302023C
:1007500001010101000000000000000070B50D4E15
:100760000D4D0024AD1BAD1005D0A300F35801348E
:100770009847A542F9D100F0CDF8084E084D002465
:10078000AD1BAD1005D0A300F35801349847A54226
:10079000F9D170BD200900002009000020090000E7
:1007A00028090000034B10B5002B02D0024800F0CE
:1007B00005F810BD00000000CD07000010B50100D5
:1007C00000230022002000F01FF810BD70B5094B77
:1007D000094CE41AA41009D0084AA518AD00ED1878
:1007E0002B68013C9847043D002CF9D100F09CF89F
:1007F00070BDC0463409000038090000FFFFFF3F0C
:100800007047C0467047C046F0B54E464546DE4686
:100810005746E0B5364D83B00600286898460F006D
:100820009146FFF7EDFF334B1C68A4235B00E058B3
:10083000002852D043681F2B13DC5A1C0192002E53
:1008400028D1019A02339B0042601F502868FFF7AD
:10085000D9FF002003B03CBC90469946A246AB4667
:10086000F0BD254B002B3DD0C820400000E000BF6C
:10087000002837D0A42200235200A1584360016011
:10088000A05040328350043283500133019300233F
:10089000002ED6D09A00924682444A468821544679
:1008A0006250C4225200914681444A468739994099
:1008B00012688B460A4394464A4661461160842278
:1008C00041465200A150022EBBD102005C468D323F
:1008D000FF3211680C431460B3E720004D30FF3045
:1008E000E050A7E72868FFF78DFF01204042B1E7FD
:1008F00028040020100900000000000053656E3A33
:10090000200000000A0000005265633A2000000049
:1009100000000020F8B5C046F8BC08BC9E467047F1
:10092000A5070000DD000000F8B5C046F8BC08BC13
:080930009E467047B50000006F
:080938004CFCFF7F01000000F0
:1009400000000000EC02002054030020BC03002043
:100950000000000000000000000000000000000097
:100960000000000000000000000000000000000087
:100970000000000000000000000000000000000077
:100980000000000000000000000000000000000067
:100990000000000000000000000000000000000057
:1009A0000000000000000000000000000000000047
:1009B0000000000000000000000000000000000037
:1009C0000000000000000000000000000000000027
:1009D0000000000000000000000000000000000017
:1009E0000000000000000000010000000000000006
:1009F0000E33CDAB34126DE6ECDE05000B000000CB
:100A000000000000000000000000000000000000E6
:100A100000000000000000000000000000000000D6
:100A200000000000000000000000000000000000C6
:100A300000000000000000000000000000000000B6
:0C0D60000000000000000000480400201B
:00000001FF
