:100000007024002039030000350300003503000090
:1000100000000000000000000000000000000000E0
:100020000000000000000000000000003503000098
:100030000000000000000000350300003503000050
:1000400035030000350300003503000035030000D0
:1000500035030000350300003503000035030000C0
:1000600035030000350300003503000035030000B0
:1000700035030000350300003503000035030000A0
:100080003503000035030000350300003503000090
:1000900035030000000000000000000035030000F0
:1000A0003503000035030000350300003503000070
:1000B0000000000010B5064C2378002B07D1054B3B
:1000C000002B02D0044800E000BF0123237010BDC4
:1000D0002C04002000000000740E0000084B10B536
:1000E000002B03D00749084800E000BF0748036819
:1000F000002B00D110BD064B002BFBD09847F9E731
:100100000000000030040020740E0000740E000097
:100110000000000010B5044B984780239B02034A5F
:100120001360034A136010BD1D020000004400412B
:1001300014440041F0B5C64600B5274951228B5CF6
:10014000402003438B5480229202244B1A60244B9C
:100150009847244B98472448244B9847244B98476A
:10016000244B984604E0224B984723481F4B98475E
:1001700000210020C0472148214CA0470021012038
:10018000C0472048A04700210220C0471E48A04782
:1001900000210320C0471D48A0471348134CA04727
:1001A000134B98471448A0470024124D184E144F83
:1001B00000210020A8473000B84700210220A847AE
:1001C000A0B2144B98470C48084B98470134124B87
:1001D0009C42EDD1C7E7C0460044004118440041AD
:1001E0001D04000031050000B7A1680029030000CC
:1001F00049060000A105000093760A00D40A000019
:1002000091060000E40A0000F00A0000FC0A000069
:100210000C0B0000AD06000001040000344A5368D6
:100220001E218B431C390B435360324B83229200B7
:100230009A829A8A0A439A821A00D3689B07FCD54D
:100240002D4B0222FF329A602C4A5A601A005378D2
:10025000DB09FCD1284B8222D2015A80254AD3687F
:10026000DB06FCD50222234B9A841A00D368DB06F6
:10027000FCD5204B224ADA621A00D368DB06FCD593
:10028000204B1A681B498B6A920E92021E4803404B
:1002900013438B620A00D368DB06FCD5154A938CA6
:1002A0001A490B439384144B194A5A601A00537825
:1002B000DB09FCD1174B184A9A620E4B1A6A174990
:1002C0000A401A621A6A80218A431A620A4B04227F
:1002D000FF329A60124A5A601A005378DB09FCD147
:1002E000104B00221A725A729A72DA727047C04624
:1002F0000040004100080040000C004001050300E0
:10030000B905FF7D24608000FF03FFFF04080000A3
:1003100000070B0000440041001001D7FFFCFFFF65
:100320000306030000040040BFF35F8F013800287C
:10033000FAD17047FEE70000F8B52A4A2A4B9A42E4
:1003400011D01A00294B9A420DD2294A03339B1A25
:100350009B0801339B000022234822498C5884507B
:1003600004329A42FAD1234A234B9A420AD2D34307
:1003700021495B1803218B4304339B18002102C2DF
:100380009342FCD11D4AFF211D4B8B439360FD39E5
:1003900090235B001B4AD1501B4AD3780325AB4303
:1003A00002242343D370D3780C27BB43082633435E
:1003B000D370164B987B30229043202210439873C1
:1003C000997BB943314399739A7BAA4322439A7329
:1003D0000F4A536880210B4353600E4B98470E4BD6
:1003E0009847FEE7740E0000000000202C04002057
:1003F000040000202C0400206C04002000ED00E02C
:100400000000000000700041005000410048004121
:1004100000400041D506000009050000224A136A89
:1004200008210B431362214AD3695B07FCD4204A9D
:10043000204B5A80204B012250215A5401315A54EA
:1004400019395A5C0F208243022002435A54585CE7
:100450000F220240202002435A54144B174A1A60BC
:1004600019000222CB691A42FCD1104B80225200A3
:100470005A601A00D3695B07FCD4114A0B4BDA604F
:100480001A00D3695B07FCD4084A136802210B43A6
:100490001360538B2E318B4310210B435383D3694D
:1004A0005B07FCD47047C04600040040000C0042CB
:1004B00015430000000C004000440041940030004F
:1004C0000B16000010B50F4CE3695B07FCD440002D
:1004D0000C4B58621C000120237E0342FCD02823D1
:1004E0000848C1540121037E0B42FCD02823054952
:1004F000CA5401220B7E1342FCD0C0229202014B4F
:100500005A6010BD000C004210B5024B9847024CD7
:10051000A047FDE7150100003501000010B50200FD
:1005200000213C20014B984710BDC046C504000087
:1005300010B5AE20194CA047D520A0478020A04779
:10054000A820A0471F20A047D320A0470020A047F5
:100550004020A0478D20A047AF20A0472020A047E3
:100560000020A047A120A047C820A047DA20A0472C
:100570000220A0478120A0478F20A047D920A04774
:10058000F120A047DB20A0474020A047A420A0479F
:10059000A620A047AF20A04710BDC0461D05000003
:1005A00070B50C005038C0B2054DA847E4000820D3
:1005B0002040A8472406240F20001030A84770BD13
:1005C0001D05000030B585B00300203B5F2B00D92E
:1005D0002020402201AB1A702038C00017490918AA
:1005E000383A6B46581D164B9847164AD3695B0735
:1005F000FCD47822134B5A621900773A0B7E1342CF
:10060000FCD0402128230F4AD154110001220B7E37
:100610001342FCD0012001AD0A4A28240121435D88
:100620001355137E0B42FCD001300928F7D1C022AC
:100630009202044B5A6005B030BDC0461C0B00004E
:1006400055070000000C0042F0B5CE4600B582B060
:10065000002399460C4E0D4F00244B466A46D37139
:10066000D579E1B22800B0472020B8470134A4B2C0
:10067000102CF6D14B4601339BB29946082BEBD197
:1006800002B004BC9146F0BDA1050000C505000004
:1006900070B504000078002805D0034D0134A84748
:1006A00020780028FAD170BDC505000010B586B0CD
:1006B0000A2201A9044B984701A8044CA04704480A
:1006C000A04706B010BDC0464D07000091060000CF
:1006D0001C0E000070B50D4E0D4D0024AD1BAD106D
:1006E00005D0A300F35801349847A542F9D100F092
:1006F000AFFB084E084D0024AD1BAD1005D0A30084
:10070000F35801349847A542F9D170BD5C0E000042
:100710005C0E00005C0E0000640E0000931E10B51D
:100720000C00222B0ED80A2A05D00021611800F0F7
:1007300053F8200010BD0028F7DA2D2340420B703B
:100740000121F3E7002300200B70F3E710B5FFF75A
:10075000E5FF10BDF0B505000F2A2FD90B000343AC
:100760009B0734D116000C000300103E35090135FB
:100770002D01451927681F6067685F60A7689F6043
:10078000E7681034DF6010339D42F3D10F239E439E
:100790001036851989191340032B1AD91E1F0023FF
:1007A000B4080134A400CF58EF500433A342FAD167
:1007B0000324A643331D2240C918ED18002A05D092
:1007C0000023CC5CEC5401339342FAD1F0BD050018
:1007D000F6E71A00F2E7C046F0B54646D6464F4661
:1007E000C0B58AB090466A461D4B0D00060013CB7B
:1007F00013C213CB13C213CB13C21B78EA46137078
:100800004346023B2F000024222B01D924E04C4612
:10081000631C30004146994600F056F953465B5C34
:1008200030003B70414600F0C9F80137061EEED19A
:100830004B46E8540023002C07D0EA5C295DE954BC
:100840002A550133013CA342F7DB28000AB01CBC47
:1008500090469946A246F0BD2C700020F6E7C046AF
:10086000280E0000034B10B5002B02D0024800F008
:1008700005F810BD000000008D08000010B5010053
:1008800000230022002000F01FF810BD70B5094BB6
:10089000094CE41AA41009D0084AA518AD00ED18B7
:1008A0002B68013C9847043D002CF9D100F0DAFA9E
:1008B00070BDC046700E0000740E0000FFFFFF3FC9
:1008C0007047C0467047C046F0B54E464546DE46C6
:1008D0005746E0B5364D83B00600286898460F00AD
:1008E0009146FFF7EDFF334B1C68A4235B00E058F3
:1008F000002852D043681F2B13DC5A1C0192002E93
:1009000028D1019A02339B0042601F502868FFF7EC
:10091000D9FF002003B03CBC90469946A246AB46A6
:10092000F0BD254B002B3DD0C820400000E000BFAB
:10093000002837D0A42200235200A1584360016050
:10094000A05040328350043283500133019300237E
:10095000002ED6D09A00924682444A4688215446B8
:100960006250C4225200914681444A4687399940D8
:1009700012688B460A4394464A46614611608422B7
:1009800041465200A150022EBBD102005C468D327E
:10099000FF3211680C431460B3E720004D30FF3084
:1009A000E050A7E72868FFF78DFF01204042B1E73C
:1009B00028040020240E000000000000002243084C
:1009C0008B4274D303098B425FD3030A8B4244D317
:1009D000030B8B4228D3030C8B420DD3FF22090259
:1009E00012BA030C8B4202D31212090265D0030B18
:1009F0008B4219D300E0090AC30B8B4201D3CB030E
:100A0000C01A5241830B8B4201D38B03C01A52414F
:100A1000430B8B4201D34B03C01A5241030B8B4251
:100A200001D30B03C01A5241C30A8B4201D3CB023C
:100A3000C01A5241830A8B4201D38B02C01A524121
:100A4000430A8B4201D34B02C01A5241030A8B4224
:100A500001D30B02C01A5241CDD2C3098B4201D33C
:100A6000CB01C01A524183098B4201D38B01C01ABA
:100A7000524143098B4201D34B01C01A5241030931
:100A80008B4201D30B01C01A5241C3088B4201D3E0
:100A9000CB00C01A524183088B4201D38B00C01A8D
:100AA000524143088B4201D34B00C01A5241411AB4
:100AB00000D20146524110467047FFE701B50020C1
:100AC00000F006F802BDC0460029F7D076E770476F
:100AD0007047C0464F4C4544205353443133303661
:100AE000000000004E6F20427566666572000000CF
:100AF000466F722053414D443231000062792041EB
:100B0000726D7374726F6E6700000000496E7465D9
:100B100067657220436F756E743A00000000000034
:100B20000000000000005F0000000000000007005F
:100B30000700000000147F147F14000000242A7FA7
:100B40002A12000000231308646200000036495591
:100B5000225000000000050300000000001C22419C
:100B6000000000000041221C0000000000082A1CB8
:100B70002A0800000008083E0808000000A06000E5
:100B8000000000000008080808080000006060007D
:100B9000000000000020100804020000003E51493F
:100BA000453E00000000427F4000000000625149C5
:100BB000494600000022414949360000001814123D
:100BC0007F1000000027454545390000003C4A4998
:100BD0004930000000017109050300000036494951
:100BE0004936000000064949291E0000000036363B
:100BF000000000000000AC6C00000000000814229F
:100C000041000000001414141414000000412214C8
:100C10000800000000020151090600000032497975
:100C2000413E0000007E0909097E0000007F49491D
:100C300049360000003E414141220000007F414111
:100C4000221C0000007F494949410000007F09093A
:100C500009010000003E414151720000007F080878
:100C6000087F000000417F4100000000002040415B
:100C70003F010000007F081422410000007F404037
:100C800040400000007F020C027F0000007F04084B
:100C9000107F0000003E4141413E0000007F0909F5
:100CA00009060000003E4151215E0000007F091945
:100CB0002946000000264949493200000001017F11
:100CC00001010000003F4040403F0000001F204065
:100CD000201F0000003F4038403F00000063140820
:100CE000146300000003047804030000006151490C
:100CF00045430000007F414100000000000204085D
:100D0000102000000041417F0000000000040201AB
:100D10000204000000808080808000000001020446
:100D2000000000000020545454780000007F484424
:100D3000443800000038444428000000003844448F
:100D4000487F0000003854545418000000087E0901
:100D5000020000000018A4A4A47C0000007F080486
:100D60000478000000007D00000000000080847D09
:100D700000000000007F10284400000000417F4078
:100D800000000000007C041804780000007C0804C7
:100D90007C000000003844443800000000FC24249B
:100DA0001800000000182424FC00000000007C084B
:100DB00004000000004854542400000000047F4454
:100DC00000000000003C40407C000000001C20406F
:100DD000201C0000003C4030403C00000044281033
:100DE00028440000001CA0A07C00000000446454C3
:100DF0004C440000000836410000000000007F0065
:100E0000000000000041360800000000000201015F
:100E10000201000000020505020000002020202041
:100E200020000000000000203031323334353637E6
:100E300038396162636465666768696A6B6C6D6E98
:100E40006F707172737475767778797A000000002C
:100E5000F8B5C046F8BC08BC9E467047650800005F
:100E6000DD000000F8B5C046F8BC08BC9E467047DF
:040E7000B5000000C9
:100E740000000000EC02002054030020BC0300200A
:100E8400000000000000000000000000000000005E
:100E9400000000000000000000000000000000004E
:100EA400000000000000000000000000000000003E
:100EB400000000000000000000000000000000002E
:100EC400000000000000000000000000000000001E
:100ED400000000000000000000000000000000000E
:100EE40000000000000000000000000000000000FE
:100EF40000000000000000000000000000000000EE
:100F040000000000000000000000000000000000DD
:100F140000000000000000000100000000000000CC
:100F24000E33CDAB34126DE6ECDE05000B00000091
:100F340000000000000000000000000000000000AD
:100F4400000000000000000000000000000000009D
:100F5400000000000000000000000000000000008D
:100F6400000000000000000000000000000000007D
:0C129400000000000000000048040020E2
:00000001FF
