S01200004930335F5354373733352E737265638A
S113000090240020910200008D0200008D02000067
S113001000000000000000000000000000000000DC
S11300200000000000000000000000008D0200003D
S113003000000000000000008D0200008D0200009E
S11300408D0200008D0200008D0200008D02000070
S11300508D0200008D0200008D0200008D02000060
S11300608D0200008D0200008D0200008D02000050
S11300708D0200008D0200008D0200008D02000040
S11300808D0200008D0200008D0200008D02000030
S11300908D02000000000000000000008D0200003E
S11300A08D0200008D0200008D0200008D02000010
S11300B00000000010B5064C2378002B07D1054B37
S11300C0002B02D0044800E000BF0123237010BDC0
S11300D0340400200000000030110000084B10B56B
S11300E0002B03D00749084800E000BF0748036815
S11300F0002B00D110BD064B002BFBD09847F9E72D
S1130100000000003804002030110000301100000D
S11301100000000010B5084B9847084B80204000B1
S113012018608021C9031960802292001A60044B70
S1130130186019601A6010BD750100000044004188
S11301401444004170B5064B9847064D2800064CF0
S1130150A047064B98472800A047054CA047FDE759
S11301608903000093760A00810200008D040000D8
S1130170A50A0000344A53681E218B431C390B43E3
S11301805360324B832292009A829A8A0A439A825B
S11301901A00D3689B07FCD52D4B0222FF329A60CC
S11301A02C4A5A601A005378DB09FCD1284B82226E
S11301B0D2015A80254AD368DB06FCD50222234BA0
S11301C09A841A00D368DB06FCD5204B224ADA62F3
S11301D01A00D368DB06FCD5204B1A681B498B6ACE
S11301E0920E92021E48034013438B620A00D368A6
S11301F0DB06FCD5154A938C1A490B439384144BA4
S1130200194A5A601A005378DB09FCD1174B184A73
S11302109A620E4B1A6A17490A401A621A6A8021B6
S11302208A431A620A4B0422FF329A60124A5A60C5
S11302301A005378DB09FCD1104B00221A725A724F
S11302409A72DA727047C0460040004100080040CC
S1130250000C004001050300B905FF7D2460800007
S1130260FF03FFFF0408000000070B0000440041E7
S1130270001001D7FFFCFFFF030603000004004049
S1130280BFF35F8F01380028FAD17047FEE7000002
S1130290F8B52A4A2A4B9A4211D01A00294B9A429D
S11302A00DD2294A03339B1A9B0801339B00002279
S11302B0234822498C58845004329A42FAD1234A62
S11302C0234B9A420AD2D34321495B1803218B431F
S11302D004339B18002102C29342FCD11D4AFF2122
S11302E01D4B8B439360FD3990235B001B4AD15017
S11302F01B4AD3780325AB4302242343D370D3781A
S11303000C27BB4308263343D370164B987B30220B
S11303109043202210439873997BB94331439973D6
S11303209A7BAA4322439A730F4A536880210B4352
S113033053600E4B98470E4B9847FEE73011000070
S113034000000020340400200400002034040020B5
S11303508C04002000ED00E000000000007000416B
S1130360005000410048004100400041790B00006A
S11303707503000010B5024B9847024CA047FDE7F7
S113038015010000450100001C4A136808210B43B5
S113039013601B4A1B4B1A801B4803680122197CFB
S11303A011431974597C11435974997C11439974FC
S11303B0D97C0A43DA74436822221A725A72134BA4
S11303C0213A1A6019000B681A42FCD10F4B104AEB
S11303D01A60802189010F4A116000210E4A1170B0
S11303E01A6802310A431A60C02292000B4B1A6049
S11303F0013AFF3A0A4B1A607047C0462004004095
S113040015400000020C004000000020000C0042D7
S11304100C003000040C00420C0C00420844004163
S113042014440041034901220B781342FCD0024BCF
S113043018607047180C0042280C004210B5064B97
S1130440802252001A608024E4031C60C0B2034B73
S11304509847034B1C6010BD144400412504000060
S11304601844004170B5064C80235B00236080254E
S1130470ED03044B1D60C0B2034B9847256070BD6B
S1130480184400411444004125040000F0B5C64658
S113049000B56E4F8025AD003D606D486D4EB04790
S11304A06D4C25606A48B0473D606948B047802379
S11304B0DB03984623600120684DA8476848B0478D
S11304C01120A8476248B0473A20A8470520654C48
S11304D0A0474520B047B120A8470120A0472C20C1
S11304E0A0472D20A047B220A8470120A0472C20D8
S11304F0A0472D20A047B320A8470120A0472C20C7
S1130500A0472D20A0470120A0472C20A0472D2044
S1130510A047B420A8470720A047C020A847A2208E
S1130520A0470220A0478420A047C120A847C52097
S1130530A047C220A8470A20A0470020A047C32004
S1130540A8478A20A0472A20A047C420A8478A2079
S1130550A047EE20A047C520A8470E20A047202092
S1130560A8473620A847C0223F4B1A70C020A04796
S11305703A20A8470520A0472A20A8470020A047E2
S11305800020A0470020A0477F20A0472B20A84799
S11305900020A0470020A0470020A0479F20A0479C
S11305A0E020A8470F20A0471A20A0470F20A0470B
S11305B01820A0472F20A0472820A0472020A0478C
S11305C02220A0471F20A0471B20A0472320A0478C
S11305D03720A0470020A0470720A0470220A047BB
S11305E01020A047E120A8470F20A0471B20A047C8
S11305F00F20A0471720A0473320A0472C20A04756
S11306002920A0472E20A0473020A0473020A04713
S11306103920A0473F20A0470020A0470720A0473B
S11306200320A0471020A047F620A8470020A04799
S11306302920A8470D48B0471320A8474520B047B4
S113064043463B6004BC9046F0BDC046184400419C
S1130650650D000081020000144400413D040000C7
S1130660050400006504000064040020AE020000DC
S1130670F0B583B007000091160001932A200C4CBA
S1130680A04700200B4DA8473800A8470020A847E2
S11306903000A8472B20A0470020A8470098A8476F
S11306A00020A8470198A8472C20A04703B0F0BD1C
S11306B03D04000065040000F8B514004B1CDBB2D7
S11306C0421CD2B2084DA847084D80235B002B6022
S11306D08026F603064B1E60200AC0B2054FB847B9
S11306E0E0B2B8472E60F8BD71060000184400411E
S11306F01444004125040000F0B5D64600B582B08C
S1130700050001909F237F2200210020154CA04763
S113071080225200144B1A608022D203134B1A60B9
S11307202A0A134B1A7080239A46114E114FA024A3
S11307306B461D793078B8472800B847013CE4B2CD
S1130740002CF7D101235B429C46E2445346002B24
S1130750EDD18022D203044B1A6002B004BC92464D
S1130760F0BDC04671060000184400411444004125
S11307705004002025040000F0B5DE4657464E46DE
S11307804546E0B587B007008B4614001E00019370
S1130790039201239B1A9A4653005B420593511816
S11307A0C9B232003B4DA8475A46111BC9B23200A8
S11307B03800A847E019C0B232005946A847381B90
S11307C0C0B232005946A847002C5BDD00230293D7
S11307D0304DB9464AE0029B01331A005B000133F5
S11307E09A4402926B46197A88460B004B44D9B25C
S11307F008006B461C7B59460F19FFB2019A390059
S11308000490A8474E464146761AF6B2019A39003A
S11308103000A8475F463F1BFFB2019A3900049895
S1130820A847019A39003000A84749460E19F6B284
S113083047465F44FFB2019A39003000A847494651
S11308400C1BE4B2019A39002000A84759464046DF
S11308500F1AFFB2019A39003000A847019A3900F3
S11308602000A8470399029A91420BDD5346002BBE
S1130870B1DB039B013B0393059B023305939C4629
S1130880E244A8E707B03CBC90469946A246AB4672
S1130890F0BDC046B9060000F0B5DE46574680B547
S11308A083B093461E00013BCB18DBB2013A821899
S11308B0D2B21B4CA047802252001A4B1A608022ED
S11308C0D203194B1A600A9B1A0A184B1A70002398
S11308D09A465B46002B19D0144F154D12E002AB1B
S11308E020229B181B7801933878A8470198A847C1
S11308F00134E4B2A642F7D153460133DBB29A463F
S11309009B4503D00024002EE9D1F5E78022D203D1
S1130910044B1A6003B00CBC92469B46F0BDC04623
S113092071060000184400411444004150040020A2
S113093025040000F0B5DE4657464E464546E0B570
S11309408BB0069007919346994614AB1F78512AB1
S113095014D8203AD2B293009B18069A059200222A
S11309609246284A7C32D2180892274A9446634415
S11309700993079B0833DBB204932DE0523AD2B2B9
S1130980E9E7089B52469E5C2CE04A46210040461B
S11309901E4B9847039B5B0803930134E4B2ED19A3
S11309A0EDB2049B9C420DD0039BDB07F2D5012FD3
S11309B0EBD04B4600933B003A0029000598144EB7
S11309C0B047E7E701239C46E244059BDB19DBB211
S11309D005935346052B0DD05B46512BD1D8099B6B
S11309E052469E5C079C2500069B5344DBB2984606
S11309F00396D9E70BB03CBC90469946A246AB4659
S1130A00F0BDC046740F0000F40E0000B9060000EB
S1130A1099080000F0B5D646474680B585B0040075
S1130A200F00150003930CAB1B789A465B005344EC
S1130A305B00DEB20C4B98462A78002A0FD053464E
S1130A400093039B39002000C047A419E4B2013588
S1130A50631D7F2BF0DD0A37FFB20024ECE705B0FD
S1130A600CBC90469A46F0BD3509000070B584B0C0
S1130A7004000D0010001E000A2202A9074B98472B
S1130A800200E9B2E0B26B4620241B191B780093E4
S1130A903300034CA04704B070BDC046F10B000006
S1130AA0150A0000F0B5CE46474680B583B0274D01
S1130AB02800274B9847274B2A224F213C20264CBD
S1130AC0A04702260096254B002240211920244CE1
S1130AD0A04703230093234B234A01210120234FE2
S1130AE0B8472348234B984700962B000022402107
S1130AF01920A0470024184B9946194E3234154B3F
S1130B002A224F213C20C84702250095134B22007E
S1130B1040211920B04703230093124B124A0121AC
S1130B200120124FB8471248124B98470095074BC3
S1130B30220040211920B047FA235B009C42DDD1FA
S1130B4003B00CBC90469946F0BDC046FFFF0000C0
S1130B50F90600001FF8000079070000FF070000F5
S1130B606D0A0000BABA0000D8100000150A00008F
S1130B70B7A168008102000070B50D4E0D4D002430
S1130B80AD1BAD1005D0A300F35801349847A5421E
S1130B90F9D100F0BBFA084E084D0024AD1BAD108E
S1130BA005D0A300F35801349847A542F9D170BD8C
S1130BB01811000018110000181100002011000085
S1130BC0931E10B50C00222B0ED80A2A05D0002142
S1130BD0611800F011F8200010BD0028F7DA2D2369
S1130BE040420B700121F3E7002300200B70F3E770
S1130BF010B5FFF7E5FF10BDF0B54646D6464F46A3
S1130C00C0B58AB090466A461D4B0D00060013CB52
S1130C1013C213CB13C213CB13C21B78EA4613704F
S1130C204346023B2F000024222B01D924E04C46EA
S1130C30631C30004146994600F056F953465B5C0C
S1130C4030003B70414600F0C9F80137061EEED172
S1130C504B46E8540023002C07D0EA5C295DE95494
S1130C602A550133013CA342F7DB28000AB01CBC1F
S1130C7090469946A246F0BD2C700020F6E7C04687
S1130C80E4100000034B10B5002B02D0024800F022
S1130C9005F810BD00000000AD0C000010B5010007
S1130CA000230022002000F01FF810BD70B5094B8E
S1130CB0094CE41AA41009D0084AA518AD00ED188F
S1130CC02B68013C9847043D002CF9D100F028FA28
S1130CD070BDC0462C11000030110000FFFFFF3F23
S1130CE07047C0467047C046F0B54E464546DE469E
S1130CF05746E0B5364D83B00600286898460F0085
S1130D009146FFF7EDFF334B1C68A4235B00E058CA
S1130D10002852D043681F2B13DC5A1C0192002E6A
S1130D2028D1019A02339B0042601F502868FFF7C4
S1130D30D9FF002003B03CBC90469946A246AB467E
S1130D40F0BD254B002B3DD0C820400000E000BF83
S1130D50002837D0A42200235200A1584360016028
S1130D60A050403283500432835001330193002356
S1130D70002ED6D09A00924682444A468821544690
S1130D806250C4225200914681444A4687399940B0
S1130D9012688B460A4394464A466146116084228F
S1130DA041465200A150022EBBD102005C468D3256
S1130DB0FF3211680C431460B3E720004D30FF305C
S1130DC0E050A7E72868FFF78DFF01204042B1E714
S1130DD030040020E010000000000000002243085E
S1130DE08B4274D303098B425FD3030A8B4244D3EF
S1130DF0030B8B4228D3030C8B420DD3FF22090231
S1130E0012BA030C8B4202D31212090265D0030BEF
S1130E108B4219D300E0090AC30B8B4201D3CB03E5
S1130E20C01A5241830B8B4201D38B03C01A524127
S1130E30430B8B4201D34B03C01A5241030B8B4229
S1130E4001D30B03C01A5241C30A8B4201D3CB0214
S1130E50C01A5241830A8B4201D38B02C01A5241F9
S1130E60430A8B4201D34B02C01A5241030A8B42FC
S1130E7001D30B02C01A5241CDD2C3098B4201D314
S1130E80CB01C01A524183098B4201D38B01C01A92
S1130E90524143098B4201D34B01C01A5241030909
S1130EA08B4201D30B01C01A5241C3088B4201D3B8
S1130EB0CB00C01A524183088B4201D38B00C01A65
S1130EC0524143088B4201D34B00C01A5241411A8C
S1130ED000D20146524110467047FFE701B5002099
S1130EE000F006F802BDC0460029F7D076E7704747
S1130EF07047C046000000000000005F00000007CB
S1130F00000700147F147F14242A7F2A1223130855
S1130F10646236495522500005030000001C22413A
S1130F20000041221C0014083E081408083E08086A
S1130F300050300000080808080800606000002025
S1130F40100804023E5149453E00427F4000426180
S1130F505149462141454B311814127F102745450C
S1130F6045393C4A49493001710905033649494923
S1130F7036064949291E0036360000005636000060
S1130F8008142241001414141414004122140802F9
S1130F9001510906324979413E7E1111117E7F4982
S1130FA04949363E414141227F4141221C7F494902
S1130FB049417F090909013E4149497A7F080808E6
S1130FC07F00417F41002040413F017F08142241BE
S1130FD07F404040407F020C027F7F0408107F3E28
S1130FE04141413E7F090909063E4151215E00000D
S1130FF07F09192946464949493101017F01013FC9
S11310004040403F1F2040201F3F4038403F631472
S113101008146307087008076151494543007F417C
S1131020410002040810200041417F000402010233
S113103004404040404000010204002054545478CD
S11310407F484444383844444420384444487F3832
S113105054545418087E0901020C5252523E7F081F
S113106004047800447D40002040443D007F102863
S1131070440000417F40007C041804787C08040488
S11310807838444444387C14141408081414187C24
S11310907C080404084854545420043F4440203C31
S11310A04040207C1C2040201C3C4030403C4428D4
S11310B01028440C5050503C4464544C44000836AE
S11310C0410000007F0000004136080010080810AD
S11310D0087846414678000052656164696E67008D
S11310E00800002030313233343536373839616204
S11310F0636465666768696A6B6C6D6E6F70717244
S1131100737475767778797A00000000F8B5C04674
S1131110F8BC08BC9E467047850C0000DD0000004A
S1131120F8B5C046F8BC08BC9E467047B500000040
S1131130404400413044004100000000F40200201B
S11311405C030020C4030020000000000000000035
S1131150000000000000000000000000000000008B
S1131160000000000000000000000000000000007B
S1131170000000000000000000000000000000006B
S1131180000000000000000000000000000000005B
S1131190000000000000000000000000000000004B
S11311A0000000000000000000000000000000003B
S11311B0000000000000000000000000000000002B
S11311C0000000000000000000000000000000001B
S11311D0000000000000000000000000000000000B
S11311E001000000000000000E33CDAB34126DE6A8
S11311F0ECDE05000B000000000000000000000011
S113120000000000000000000000000000000000DA
S113121000000000000000000000000000000000CA
S113122000000000000000000000000000000000BA
S113123000000000000000000000000000000000AA
S107156068040020F7
S9030000FC
